{
  "_format": "hh-sol-artifact-1",
  "contractName": "DAO",
  "sourceName": "contracts/DAO.sol",
  "abi": [
    {
      "inputs": [],
      "stateMutability": "nonpayable",
      "type": "constructor"
    },
    {
      "inputs": [
        {
          "internalType": "uint256",
          "name": "",
          "type": "uint256"
        }
      ],
      "name": "Proposals",
      "outputs": [
        {
          "internalType": "uint256",
          "name": "id",
          "type": "uint256"
        },
        {
          "internalType": "string",
          "name": "description",
          "type": "string"
        },
        {
          "internalType": "string",
          "name": "choice1",
          "type": "string"
        },
        {
          "internalType": "string",
          "name": "choice2",
          "type": "string"
        },
        {
          "internalType": "string",
          "name": "choice3",
          "type": "string"
        }
      ],
      "stateMutability": "view",
      "type": "function"
    },
    {
      "inputs": [
        {
          "internalType": "string",
          "name": "_description",
          "type": "string"
        },
        {
          "internalType": "string",
          "name": "_choice1",
          "type": "string"
        },
        {
          "internalType": "string",
          "name": "_choice2",
          "type": "string"
        },
        {
          "internalType": "string",
          "name": "_choice3",
          "type": "string"
        }
      ],
      "name": "createProposal",
      "outputs": [],
      "stateMutability": "nonpayable",
      "type": "function"
    },
    {
      "inputs": [],
      "name": "getDAOMembers",
      "outputs": [
        {
          "internalType": "address[]",
          "name": "",
          "type": "address[]"
        }
      ],
      "stateMutability": "nonpayable",
      "type": "function"
    },
    {
      "inputs": [
        {
          "internalType": "uint256",
          "name": "proposalId",
          "type": "uint256"
        }
      ],
      "name": "getProposal",
      "outputs": [
        {
          "components": [
            {
              "internalType": "uint256",
              "name": "id",
              "type": "uint256"
            },
            {
              "internalType": "string",
              "name": "description",
              "type": "string"
            },
            {
              "internalType": "string",
              "name": "choice1",
              "type": "string"
            },
            {
              "internalType": "string",
              "name": "choice2",
              "type": "string"
            },
            {
              "internalType": "string",
              "name": "choice3",
              "type": "string"
            }
          ],
          "internalType": "struct DAO.proposal",
          "name": "",
          "type": "tuple"
        }
      ],
      "stateMutability": "nonpayable",
      "type": "function"
    },
    {
      "inputs": [
        {
          "internalType": "address",
          "name": "nftHolder",
          "type": "address"
        }
      ],
      "name": "joinDAO",
      "outputs": [],
      "stateMutability": "nonpayable",
      "type": "function"
    }
  ],
  "bytecode": "0x608060405234801561001057600080fd5b50600080546001600160a01b03191673e3988a93e9e1000ffbe318666849d91a6626784c1790556001600255610d428061004b6000396000f3fe608060405234801561001057600080fd5b50600436106100575760003560e01c80632a6896921461005c5780637f9ba63214610071578063c7f758a814610084578063d1dbe7d8146100ad578063e43bcc77146100d1575b600080fd5b61006f61006a366004610a3d565b6100e6565b005b61006f61007f366004610a0f565b610265565b610097610092366004610ae5565b610395565b6040516100a49190610bad565b60405180910390f35b6100c06100bb366004610ae5565b61063e565b6040516100a4959493929190610c35565b6100d961088d565b6040516100a49190610b60565b6000546040516370a0823160e01b81523360048201526001916001600160a01b0316906370a082319060240160206040518083038186803b15801561012a57600080fd5b505afa15801561013e573d6000803e3d6000fd5b505050506040513d601f19601f820116820180604052508101906101629190610afd565b10156101db5760405162461bcd60e51b815260206004820152603e60248201527f596f75206e65656420746f206d696e7420616e20455448476c6f62616c44414f60448201527f204e4654206265666f7265206372656174696e672070726f706f73616c73000060648201526084015b60405180910390fd5b60025460008181526003602090815260409091209182558551610206916001840191908801906108ef565b50835161021c90600283019060208701906108ef565b50825161023290600383019060208601906108ef565b50815161024890600483019060208501906108ef565b506002805490600061025983610ccf565b91905055505050505050565b6000546040516370a0823160e01b81526001600160a01b03838116600483015260019216906370a082319060240160206040518083038186803b1580156102ab57600080fd5b505afa1580156102bf573d6000803e3d6000fd5b505050506040513d601f19601f820116820180604052508101906102e39190610afd565b10156103445760405162461bcd60e51b815260206004820152602a60248201527f596f75206e65656420746f206d696e7420616e20455448476c6f62616c44414f6044820152690813919508199a5c9cdd60b21b60648201526084016101d2565b6001805480820182556000919091527fb10e2d527612073b26eecdfd717e6a320cf44b4afac2b0732d9fcbe2b7fa0cf60180546001600160a01b0319166001600160a01b0392909216919091179055565b6103c76040518060a0016040528060008152602001606081526020016060815260200160608152602001606081525090565b600360008381526020019081526020016000206040518060a0016040529081600082015481526020016001820180546103ff90610c94565b80601f016020809104026020016040519081016040528092919081815260200182805461042b90610c94565b80156104785780601f1061044d57610100808354040283529160200191610478565b820191906000526020600020905b81548152906001019060200180831161045b57829003601f168201915b5050505050815260200160028201805461049190610c94565b80601f01602080910402602001604051908101604052809291908181526020018280546104bd90610c94565b801561050a5780601f106104df5761010080835404028352916020019161050a565b820191906000526020600020905b8154815290600101906020018083116104ed57829003601f168201915b5050505050815260200160038201805461052390610c94565b80601f016020809104026020016040519081016040528092919081815260200182805461054f90610c94565b801561059c5780601f106105715761010080835404028352916020019161059c565b820191906000526020600020905b81548152906001019060200180831161057f57829003601f168201915b505050505081526020016004820180546105b590610c94565b80601f01602080910402602001604051908101604052809291908181526020018280546105e190610c94565b801561062e5780601f106106035761010080835404028352916020019161062e565b820191906000526020600020905b81548152906001019060200180831161061157829003601f168201915b5050505050815250509050919050565b6003602052600090815260409020805460018201805491929161066090610c94565b80601f016020809104026020016040519081016040528092919081815260200182805461068c90610c94565b80156106d95780601f106106ae576101008083540402835291602001916106d9565b820191906000526020600020905b8154815290600101906020018083116106bc57829003601f168201915b5050505050908060020180546106ee90610c94565b80601f016020809104026020016040519081016040528092919081815260200182805461071a90610c94565b80156107675780601f1061073c57610100808354040283529160200191610767565b820191906000526020600020905b81548152906001019060200180831161074a57829003601f168201915b50505050509080600301805461077c90610c94565b80601f01602080910402602001604051908101604052809291908181526020018280546107a890610c94565b80156107f55780601f106107ca576101008083540402835291602001916107f5565b820191906000526020600020905b8154815290600101906020018083116107d857829003601f168201915b50505050509080600401805461080a90610c94565b80601f016020809104026020016040519081016040528092919081815260200182805461083690610c94565b80156108835780601f1061085857610100808354040283529160200191610883565b820191906000526020600020905b81548152906001019060200180831161086657829003601f168201915b5050505050905085565b606060018054806020026020016040519081016040528092919081815260200182805480156108e557602002820191906000526020600020905b81546001600160a01b031681526001909101906020018083116108c7575b5050505050905090565b8280546108fb90610c94565b90600052602060002090601f01602090048101928261091d5760008555610963565b82601f1061093657805160ff1916838001178555610963565b82800160010185558215610963579182015b82811115610963578251825591602001919060010190610948565b5061096f929150610973565b5090565b5b8082111561096f5760008155600101610974565b600082601f830112610998578081fd5b813567ffffffffffffffff808211156109b3576109b3610cf6565b604051601f8301601f19908116603f011681019082821181831017156109db576109db610cf6565b816040528381528660208588010111156109f3578485fd5b8360208701602083013792830160200193909352509392505050565b600060208284031215610a20578081fd5b81356001600160a01b0381168114610a36578182fd5b9392505050565b60008060008060808587031215610a52578283fd5b843567ffffffffffffffff80821115610a69578485fd5b610a7588838901610988565b95506020870135915080821115610a8a578485fd5b610a9688838901610988565b94506040870135915080821115610aab578384fd5b610ab788838901610988565b93506060870135915080821115610acc578283fd5b50610ad987828801610988565b91505092959194509250565b600060208284031215610af6578081fd5b5035919050565b600060208284031215610b0e578081fd5b5051919050565b60008151808452815b81811015610b3a57602081850181015186830182015201610b1e565b81811115610b4b5782602083870101525b50601f01601f19169290920160200192915050565b6020808252825182820181905260009190848201906040850190845b81811015610ba15783516001600160a01b031683529284019291840191600101610b7c565b50909695505050505050565b60208152815160208201526000602083015160a06040840152610bd360c0840182610b15565b90506040840151601f1980858403016060860152610bf18383610b15565b92506060860151915080858403016080860152610c0e8383610b15565b925060808601519150808584030160a086015250610c2c8282610b15565b95945050505050565b85815260a060208201526000610c4e60a0830187610b15565b8281036040840152610c608187610b15565b90508281036060840152610c748186610b15565b90508281036080840152610c888185610b15565b98975050505050505050565b600181811c90821680610ca857607f821691505b60208210811415610cc957634e487b7160e01b600052602260045260246000fd5b50919050565b6000600019821415610cef57634e487b7160e01b81526011600452602481fd5b5060010190565b634e487b7160e01b600052604160045260246000fdfea2646970667358221220aaaee94de14cb8bf12320e45022e81eb86aa782976f4ad5e46d153b4895889f764736f6c63430008040033",
  "linkReferences": {},
  "deployedLinkReferences": {}
}