{
  "_format": "hh-sol-artifact-1",
  "contractName": "DAO",
  "sourceName": "contracts/DAO.sol",
  "abi": [
    {
      "inputs": [],
      "stateMutability": "nonpayable",
      "type": "constructor"
    },
    {
      "inputs": [],
      "name": "getDAOMembers",
      "outputs": [
        {
          "internalType": "address[]",
          "name": "",
          "type": "address[]"
        }
      ],
      "stateMutability": "nonpayable",
      "type": "function"
    },
    {
      "inputs": [
        {
          "internalType": "address",
          "name": "nftHolder",
          "type": "address"
        }
      ],
      "name": "joinDAO",
      "outputs": [],
      "stateMutability": "nonpayable",
      "type": "function"
    }
  ],
  "bytecode": "0x608060405234801561001057600080fd5b50600080546001600160a01b03191673e3988a93e9e1000ffbe318666849d91a6626784c1790556102cd806100466000396000f3fe608060405234801561001057600080fd5b50600436106100365760003560e01c80637f9ba6321461003b578063e43bcc7714610050575b600080fd5b61004e610049366004610204565b61006e565b005b6100586101a2565b604051610065919061024a565b60405180910390f35b6000546040516370a0823160e01b81526001600160a01b03838116600483015260019216906370a082319060240160206040518083038186803b1580156100b457600080fd5b505afa1580156100c8573d6000803e3d6000fd5b505050506040513d601f19601f820116820180604052508101906100ec9190610232565b10156101515760405162461bcd60e51b815260206004820152602a60248201527f596f75206e65656420746f206d696e7420616e20455448476c6f62616c44414f6044820152690813919508199a5c9cdd60b21b606482015260840160405180910390fd5b6001805480820182556000919091527fb10e2d527612073b26eecdfd717e6a320cf44b4afac2b0732d9fcbe2b7fa0cf60180546001600160a01b0319166001600160a01b0392909216919091179055565b606060018054806020026020016040519081016040528092919081815260200182805480156101fa57602002820191906000526020600020905b81546001600160a01b031681526001909101906020018083116101dc575b5050505050905090565b600060208284031215610215578081fd5b81356001600160a01b038116811461022b578182fd5b9392505050565b600060208284031215610243578081fd5b5051919050565b6020808252825182820181905260009190848201906040850190845b8181101561028b5783516001600160a01b031683529284019291840191600101610266565b5090969550505050505056fea2646970667358221220991d3b3b838b6a28d7c8bccc2eb897e8677cccd99d5896afbbfa475bcd53b35c64736f6c63430008040033",
  "linkReferences": {},
  "deployedLinkReferences": {}
}