{
  "_format": "hh-sol-artifact-1",
  "contractName": "MyNFT",
  "sourceName": "contracts/NFT.sol",
  "abi": [
    {
      "inputs": [],
      "stateMutability": "nonpayable",
      "type": "constructor"
    },
    {
      "anonymous": false,
      "inputs": [
        {
          "indexed": true,
          "internalType": "address",
          "name": "owner",
          "type": "address"
        },
        {
          "indexed": true,
          "internalType": "address",
          "name": "approved",
          "type": "address"
        },
        {
          "indexed": true,
          "internalType": "uint256",
          "name": "tokenId",
          "type": "uint256"
        }
      ],
      "name": "Approval",
      "type": "event"
    },
    {
      "anonymous": false,
      "inputs": [
        {
          "indexed": true,
          "internalType": "address",
          "name": "owner",
          "type": "address"
        },
        {
          "indexed": true,
          "internalType": "address",
          "name": "operator",
          "type": "address"
        },
        {
          "indexed": false,
          "internalType": "bool",
          "name": "approved",
          "type": "bool"
        }
      ],
      "name": "ApprovalForAll",
      "type": "event"
    },
    {
      "anonymous": false,
      "inputs": [
        {
          "indexed": true,
          "internalType": "address",
          "name": "previousOwner",
          "type": "address"
        },
        {
          "indexed": true,
          "internalType": "address",
          "name": "newOwner",
          "type": "address"
        }
      ],
      "name": "OwnershipTransferred",
      "type": "event"
    },
    {
      "anonymous": false,
      "inputs": [
        {
          "indexed": true,
          "internalType": "address",
          "name": "from",
          "type": "address"
        },
        {
          "indexed": true,
          "internalType": "address",
          "name": "to",
          "type": "address"
        },
        {
          "indexed": true,
          "internalType": "uint256",
          "name": "tokenId",
          "type": "uint256"
        }
      ],
      "name": "Transfer",
      "type": "event"
    },
    {
      "inputs": [
        {
          "internalType": "address",
          "name": "to",
          "type": "address"
        },
        {
          "internalType": "uint256",
          "name": "tokenId",
          "type": "uint256"
        }
      ],
      "name": "approve",
      "outputs": [],
      "stateMutability": "nonpayable",
      "type": "function"
    },
    {
      "inputs": [
        {
          "internalType": "address",
          "name": "owner",
          "type": "address"
        }
      ],
      "name": "balanceOf",
      "outputs": [
        {
          "internalType": "uint256",
          "name": "",
          "type": "uint256"
        }
      ],
      "stateMutability": "view",
      "type": "function"
    },
    {
      "inputs": [],
      "name": "baseTokenURI",
      "outputs": [
        {
          "internalType": "string",
          "name": "",
          "type": "string"
        }
      ],
      "stateMutability": "view",
      "type": "function"
    },
    {
      "inputs": [
        {
          "internalType": "uint256",
          "name": "tokenId",
          "type": "uint256"
        }
      ],
      "name": "getApproved",
      "outputs": [
        {
          "internalType": "address",
          "name": "",
          "type": "address"
        }
      ],
      "stateMutability": "view",
      "type": "function"
    },
    {
      "inputs": [
        {
          "internalType": "address",
          "name": "owner",
          "type": "address"
        },
        {
          "internalType": "address",
          "name": "operator",
          "type": "address"
        }
      ],
      "name": "isApprovedForAll",
      "outputs": [
        {
          "internalType": "bool",
          "name": "",
          "type": "bool"
        }
      ],
      "stateMutability": "view",
      "type": "function"
    },
    {
      "inputs": [
        {
          "internalType": "address",
          "name": "recipient",
          "type": "address"
        },
        {
          "internalType": "string",
          "name": "uri",
          "type": "string"
        }
      ],
      "name": "mint",
      "outputs": [
        {
          "internalType": "uint256",
          "name": "",
          "type": "uint256"
        }
      ],
      "stateMutability": "nonpayable",
      "type": "function"
    },
    {
      "inputs": [],
      "name": "name",
      "outputs": [
        {
          "internalType": "string",
          "name": "",
          "type": "string"
        }
      ],
      "stateMutability": "view",
      "type": "function"
    },
    {
      "inputs": [],
      "name": "owner",
      "outputs": [
        {
          "internalType": "address",
          "name": "",
          "type": "address"
        }
      ],
      "stateMutability": "view",
      "type": "function"
    },
    {
      "inputs": [
        {
          "internalType": "uint256",
          "name": "tokenId",
          "type": "uint256"
        }
      ],
      "name": "ownerOf",
      "outputs": [
        {
          "internalType": "address",
          "name": "",
          "type": "address"
        }
      ],
      "stateMutability": "view",
      "type": "function"
    },
    {
      "inputs": [],
      "name": "renounceOwnership",
      "outputs": [],
      "stateMutability": "nonpayable",
      "type": "function"
    },
    {
      "inputs": [
        {
          "internalType": "address",
          "name": "from",
          "type": "address"
        },
        {
          "internalType": "address",
          "name": "to",
          "type": "address"
        },
        {
          "internalType": "uint256",
          "name": "tokenId",
          "type": "uint256"
        }
      ],
      "name": "safeTransferFrom",
      "outputs": [],
      "stateMutability": "nonpayable",
      "type": "function"
    },
    {
      "inputs": [
        {
          "internalType": "address",
          "name": "from",
          "type": "address"
        },
        {
          "internalType": "address",
          "name": "to",
          "type": "address"
        },
        {
          "internalType": "uint256",
          "name": "tokenId",
          "type": "uint256"
        },
        {
          "internalType": "bytes",
          "name": "_data",
          "type": "bytes"
        }
      ],
      "name": "safeTransferFrom",
      "outputs": [],
      "stateMutability": "nonpayable",
      "type": "function"
    },
    {
      "inputs": [
        {
          "internalType": "address",
          "name": "operator",
          "type": "address"
        },
        {
          "internalType": "bool",
          "name": "approved",
          "type": "bool"
        }
      ],
      "name": "setApprovalForAll",
      "outputs": [],
      "stateMutability": "nonpayable",
      "type": "function"
    },
    {
      "inputs": [
        {
          "internalType": "string",
          "name": "_baseTokenURI",
          "type": "string"
        }
      ],
      "name": "setBaseTokenURI",
      "outputs": [],
      "stateMutability": "nonpayable",
      "type": "function"
    },
    {
      "inputs": [
        {
          "internalType": "bytes4",
          "name": "interfaceId",
          "type": "bytes4"
        }
      ],
      "name": "supportsInterface",
      "outputs": [
        {
          "internalType": "bool",
          "name": "",
          "type": "bool"
        }
      ],
      "stateMutability": "view",
      "type": "function"
    },
    {
      "inputs": [],
      "name": "symbol",
      "outputs": [
        {
          "internalType": "string",
          "name": "",
          "type": "string"
        }
      ],
      "stateMutability": "view",
      "type": "function"
    },
    {
      "inputs": [
        {
          "internalType": "uint256",
          "name": "tokenId",
          "type": "uint256"
        }
      ],
      "name": "tokenURI",
      "outputs": [
        {
          "internalType": "string",
          "name": "",
          "type": "string"
        }
      ],
      "stateMutability": "view",
      "type": "function"
    },
    {
      "inputs": [
        {
          "internalType": "address",
          "name": "from",
          "type": "address"
        },
        {
          "internalType": "address",
          "name": "to",
          "type": "address"
        },
        {
          "internalType": "uint256",
          "name": "tokenId",
          "type": "uint256"
        }
      ],
      "name": "transferFrom",
      "outputs": [],
      "stateMutability": "nonpayable",
      "type": "function"
    },
    {
      "inputs": [
        {
          "internalType": "address",
          "name": "newOwner",
          "type": "address"
        }
      ],
      "name": "transferOwnership",
      "outputs": [],
      "stateMutability": "nonpayable",
      "type": "function"
    }
  ],
  "bytecode": "0x60806040523480156200001157600080fd5b506040805180820182526005815264135e53919560da1b6020808301918252835180850190945260048452631353919560e21b9084015281519192916200005b91600091620000ea565b50805162000071906001906020840190620000ea565b5050506200008e620000886200009460201b60201c565b62000098565b620001cd565b3390565b600680546001600160a01b038381166001600160a01b0319831681179093556040519116919082907f8be0079c531659141344cd1fd0a4f28419497f9722a3daafe3b4186f6b6457e090600090a35050565b828054620000f89062000190565b90600052602060002090601f0160209004810192826200011c576000855562000167565b82601f106200013757805160ff191683800117855562000167565b8280016001018555821562000167579182015b82811115620001675782518255916020019190600101906200014a565b506200017592915062000179565b5090565b5b808211156200017557600081556001016200017a565b600181811c90821680620001a557607f821691505b60208210811415620001c757634e487b7160e01b600052602260045260246000fd5b50919050565b61168e80620001dd6000396000f3fe608060405234801561001057600080fd5b50600436106101215760003560e01c8063715018a6116100ad578063c87b56dd11610071578063c87b56dd14610257578063d0def5211461026a578063d547cfb71461027d578063e985e9c514610285578063f2fde38b146102c157600080fd5b8063715018a6146102105780638da5cb5b1461021857806395d89b4114610229578063a22cb46514610231578063b88d4fde1461024457600080fd5b806323b872dd116100f457806323b872dd146101a357806330176e13146101b657806342842e0e146101c95780636352211e146101dc57806370a08231146101ef57600080fd5b806301ffc9a71461012657806306fdde031461014e578063081812fc14610163578063095ea7b31461018e575b600080fd5b6101396101343660046113b6565b6102d4565b60405190151581526020015b60405180910390f35b610156610326565b60405161014591906114c1565b610176610171366004611421565b6103b8565b6040516001600160a01b039091168152602001610145565b6101a161019c36600461138d565b610452565b005b6101a16101b1366004611253565b610568565b6101a16101c43660046113ee565b610599565b6101a16101d7366004611253565b6105da565b6101766101ea366004611421565b6105f5565b6102026101fd366004611207565b61066c565b604051908152602001610145565b6101a16106f3565b6006546001600160a01b0316610176565b610156610729565b6101a161023f366004611307565b610738565b6101a161025236600461128e565b610743565b610156610265366004611421565b61077b565b610202610278366004611341565b610899565b6101566108d1565b610139610293366004611221565b6001600160a01b03918216600090815260056020908152604080832093909416825291909152205460ff1690565b6101a16102cf366004611207565b61095f565b60006001600160e01b031982166380ac58cd60e01b148061030557506001600160e01b03198216635b5e139f60e01b145b8061032057506301ffc9a760e01b6001600160e01b03198316145b92915050565b606060008054610335906115db565b80601f0160208091040260200160405190810160405280929190818152602001828054610361906115db565b80156103ae5780601f10610383576101008083540402835291602001916103ae565b820191906000526020600020905b81548152906001019060200180831161039157829003601f168201915b5050505050905090565b6000818152600260205260408120546001600160a01b03166104365760405162461bcd60e51b815260206004820152602c60248201527f4552433732313a20617070726f76656420717565727920666f72206e6f6e657860448201526b34b9ba32b73a103a37b5b2b760a11b60648201526084015b60405180910390fd5b506000908152600460205260409020546001600160a01b031690565b600061045d826105f5565b9050806001600160a01b0316836001600160a01b031614156104cb5760405162461bcd60e51b815260206004820152602160248201527f4552433732313a20617070726f76616c20746f2063757272656e74206f776e656044820152603960f91b606482015260840161042d565b336001600160a01b03821614806104e757506104e78133610293565b6105595760405162461bcd60e51b815260206004820152603860248201527f4552433732313a20617070726f76652063616c6c6572206973206e6f74206f7760448201527f6e6572206e6f7220617070726f76656420666f7220616c6c0000000000000000606482015260840161042d565b61056383836109fa565b505050565b6105723382610a68565b61058e5760405162461bcd60e51b815260040161042d9061155b565b610563838383610b5f565b6006546001600160a01b031633146105c35760405162461bcd60e51b815260040161042d90611526565b80516105d69060099060208401906110bd565b5050565b61056383838360405180602001604052806000815250610743565b6000818152600260205260408120546001600160a01b0316806103205760405162461bcd60e51b815260206004820152602960248201527f4552433732313a206f776e657220717565727920666f72206e6f6e657869737460448201526832b73a103a37b5b2b760b91b606482015260840161042d565b60006001600160a01b0382166106d75760405162461bcd60e51b815260206004820152602a60248201527f4552433732313a2062616c616e636520717565727920666f7220746865207a65604482015269726f206164647265737360b01b606482015260840161042d565b506001600160a01b031660009081526003602052604090205490565b6006546001600160a01b0316331461071d5760405162461bcd60e51b815260040161042d90611526565b6107276000610cfb565b565b606060018054610335906115db565b6105d6338383610d4d565b61074d3383610a68565b6107695760405162461bcd60e51b815260040161042d9061155b565b61077584848484610e1c565b50505050565b6000818152600260205260409020546060906001600160a01b03166107fa5760405162461bcd60e51b815260206004820152602f60248201527f4552433732314d657461646174613a2055524920717565727920666f72206e6f60448201526e3732bc34b9ba32b73a103a37b5b2b760891b606482015260840161042d565b60008281526008602052604081208054610813906115db565b80601f016020809104026020016040519081016040528092919081815260200182805461083f906115db565b801561088c5780601f106108615761010080835404028352916020019161088c565b820191906000526020600020905b81548152906001019060200180831161086f57829003601f168201915b5093979650505050505050565b60006108a9600780546001019055565b60006108b460075490565b90506108c08482610e4f565b6108ca8184610f91565b9392505050565b600980546108de906115db565b80601f016020809104026020016040519081016040528092919081815260200182805461090a906115db565b80156109575780601f1061092c57610100808354040283529160200191610957565b820191906000526020600020905b81548152906001019060200180831161093a57829003601f168201915b505050505081565b6006546001600160a01b031633146109895760405162461bcd60e51b815260040161042d90611526565b6001600160a01b0381166109ee5760405162461bcd60e51b815260206004820152602660248201527f4f776e61626c653a206e6577206f776e657220697320746865207a65726f206160448201526564647265737360d01b606482015260840161042d565b6109f781610cfb565b50565b600081815260046020526040902080546001600160a01b0319166001600160a01b0384169081179091558190610a2f826105f5565b6001600160a01b03167f8c5be1e5ebec7d5bd14f71427d1e84f3dd0314c0f7b2291e5b200ac8c7c3b92560405160405180910390a45050565b6000818152600260205260408120546001600160a01b0316610ae15760405162461bcd60e51b815260206004820152602c60248201527f4552433732313a206f70657261746f7220717565727920666f72206e6f6e657860448201526b34b9ba32b73a103a37b5b2b760a11b606482015260840161042d565b6000610aec836105f5565b9050806001600160a01b0316846001600160a01b03161480610b3357506001600160a01b0380821660009081526005602090815260408083209388168352929052205460ff165b80610b575750836001600160a01b0316610b4c846103b8565b6001600160a01b0316145b949350505050565b826001600160a01b0316610b72826105f5565b6001600160a01b031614610bd65760405162461bcd60e51b815260206004820152602560248201527f4552433732313a207472616e736665722066726f6d20696e636f72726563742060448201526437bbb732b960d91b606482015260840161042d565b6001600160a01b038216610c385760405162461bcd60e51b8152602060048201526024808201527f4552433732313a207472616e7366657220746f20746865207a65726f206164646044820152637265737360e01b606482015260840161042d565b610c436000826109fa565b6001600160a01b0383166000908152600360205260408120805460019290610c6c9084906115c4565b90915550506001600160a01b0382166000908152600360205260408120805460019290610c9a9084906115ac565b909155505060008181526002602052604080822080546001600160a01b0319166001600160a01b0386811691821790925591518493918716917fddf252ad1be2c89b69c2b068fc378daa952ba7f163c4a11628f55a4df523b3ef91a4505050565b600680546001600160a01b038381166001600160a01b0319831681179093556040519116919082907f8be0079c531659141344cd1fd0a4f28419497f9722a3daafe3b4186f6b6457e090600090a35050565b816001600160a01b0316836001600160a01b03161415610daf5760405162461bcd60e51b815260206004820152601960248201527f4552433732313a20617070726f766520746f2063616c6c657200000000000000604482015260640161042d565b6001600160a01b03838116600081815260056020908152604080832094871680845294825291829020805460ff191686151590811790915591519182527f17307eab39ab6107e8899845ad3d59bd9653f200f220920489ca2b5937696c31910160405180910390a3505050565b610e27848484610b5f565b610e3384848484610fb0565b6107755760405162461bcd60e51b815260040161042d906114d4565b6001600160a01b038216610ea55760405162461bcd60e51b815260206004820181905260248201527f4552433732313a206d696e7420746f20746865207a65726f2061646472657373604482015260640161042d565b6000818152600260205260409020546001600160a01b031615610f0a5760405162461bcd60e51b815260206004820152601c60248201527f4552433732313a20746f6b656e20616c7265616479206d696e74656400000000604482015260640161042d565b6001600160a01b0382166000908152600360205260408120805460019290610f339084906115ac565b909155505060008181526002602052604080822080546001600160a01b0319166001600160a01b03861690811790915590518392907fddf252ad1be2c89b69c2b068fc378daa952ba7f163c4a11628f55a4df523b3ef908290a45050565b60008281526008602090815260409091208251610563928401906110bd565b60006001600160a01b0384163b156110b257604051630a85bd0160e11b81526001600160a01b0385169063150b7a0290610ff4903390899088908890600401611484565b602060405180830381600087803b15801561100e57600080fd5b505af192505050801561103e575060408051601f3d908101601f1916820190925261103b918101906113d2565b60015b611098573d80801561106c576040519150601f19603f3d011682016040523d82523d6000602084013e611071565b606091505b5080516110905760405162461bcd60e51b815260040161042d906114d4565b805181602001fd5b6001600160e01b031916630a85bd0160e11b149050610b57565b506001949350505050565b8280546110c9906115db565b90600052602060002090601f0160209004810192826110eb5760008555611131565b82601f1061110457805160ff1916838001178555611131565b82800160010185558215611131579182015b82811115611131578251825591602001919060010190611116565b5061113d929150611141565b5090565b5b8082111561113d5760008155600101611142565b600067ffffffffffffffff808411156111715761117161162c565b604051601f8501601f19908116603f011681019082821181831017156111995761119961162c565b816040528093508581528686860111156111b257600080fd5b858560208301376000602087830101525050509392505050565b80356001600160a01b03811681146111e357600080fd5b919050565b600082601f8301126111f8578081fd5b6108ca83833560208501611156565b600060208284031215611218578081fd5b6108ca826111cc565b60008060408385031215611233578081fd5b61123c836111cc565b915061124a602084016111cc565b90509250929050565b600080600060608486031215611267578081fd5b611270846111cc565b925061127e602085016111cc565b9150604084013590509250925092565b600080600080608085870312156112a3578081fd5b6112ac856111cc565b93506112ba602086016111cc565b925060408501359150606085013567ffffffffffffffff8111156112dc578182fd5b8501601f810187136112ec578182fd5b6112fb87823560208401611156565b91505092959194509250565b60008060408385031215611319578182fd5b611322836111cc565b915060208301358015158114611336578182fd5b809150509250929050565b60008060408385031215611353578182fd5b61135c836111cc565b9150602083013567ffffffffffffffff811115611377578182fd5b611383858286016111e8565b9150509250929050565b6000806040838503121561139f578182fd5b6113a8836111cc565b946020939093013593505050565b6000602082840312156113c7578081fd5b81356108ca81611642565b6000602082840312156113e3578081fd5b81516108ca81611642565b6000602082840312156113ff578081fd5b813567ffffffffffffffff811115611415578182fd5b610b57848285016111e8565b600060208284031215611432578081fd5b5035919050565b60008151808452815b8181101561145e57602081850181015186830182015201611442565b8181111561146f5782602083870101525b50601f01601f19169290920160200192915050565b6001600160a01b03858116825284166020820152604081018390526080606082018190526000906114b790830184611439565b9695505050505050565b6020815260006108ca6020830184611439565b60208082526032908201527f4552433732313a207472616e7366657220746f206e6f6e20455243373231526560408201527131b2b4bb32b91034b6b83632b6b2b73a32b960711b606082015260800190565b6020808252818101527f4f776e61626c653a2063616c6c6572206973206e6f7420746865206f776e6572604082015260600190565b60208082526031908201527f4552433732313a207472616e736665722063616c6c6572206973206e6f74206f6040820152701ddb995c881b9bdc88185c1c1c9bdd9959607a1b606082015260800190565b600082198211156115bf576115bf611616565b500190565b6000828210156115d6576115d6611616565b500390565b600181811c908216806115ef57607f821691505b6020821081141561161057634e487b7160e01b600052602260045260246000fd5b50919050565b634e487b7160e01b600052601160045260246000fd5b634e487b7160e01b600052604160045260246000fd5b6001600160e01b0319811681146109f757600080fdfea2646970667358221220f6c2cf5c31bc1018ad127f0eebff999f2a36aa27b6033b751ed5122c6344ff7564736f6c63430008040033",
  "linkReferences": {},
  "deployedLinkReferences": {}
}